{"abi":[{"type":"function","name":"EXTERNAL_RPC_CALL","inputs":[],"outputs":[{"name":"","type":"address","internalType":"address"}],"stateMutability":"view"},{"type":"function","name":"remoteEthCallBalanceOf","inputs":[{"name":"args","type":"tuple","internalType":"struct RemoteEthCall.RemoteEthCallArgs","components":[{"name":"chainId","type":"uint256","internalType":"uint256"},{"name":"ethCallArgs","type":"tuple","internalType":"struct RemoteEthCall.EthCallArgs","components":[{"name":"transaction","type":"tuple","internalType":"struct RemoteEthCall.Transaction","components":[{"name":"from","type":"address","internalType":"address"},{"name":"to","type":"address","internalType":"address"},{"name":"gas","type":"uint256","internalType":"uint256"},{"name":"gasPrice","type":"uint256","internalType":"uint256"},{"name":"value","type":"uint256","internalType":"uint256"},{"name":"data","type":"bytes","internalType":"bytes"}]},{"name":"blockNumber","type":"bytes","internalType":"bytes"}]}]}],"outputs":[{"name":"","type":"uint256","internalType":"uint256"}],"stateMutability":"view"},{"type":"function","name":"remoteEthCallGetStruct","inputs":[{"name":"args","type":"tuple","internalType":"struct RemoteEthCall.RemoteEthCallArgs","components":[{"name":"chainId","type":"uint256","internalType":"uint256"},{"name":"ethCallArgs","type":"tuple","internalType":"struct RemoteEthCall.EthCallArgs","components":[{"name":"transaction","type":"tuple","internalType":"struct RemoteEthCall.Transaction","components":[{"name":"from","type":"address","internalType":"address"},{"name":"to","type":"address","internalType":"address"},{"name":"gas","type":"uint256","internalType":"uint256"},{"name":"gasPrice","type":"uint256","internalType":"uint256"},{"name":"value","type":"uint256","internalType":"uint256"},{"name":"data","type":"bytes","internalType":"bytes"}]},{"name":"blockNumber","type":"bytes","internalType":"bytes"}]}]}],"outputs":[{"name":"","type":"uint256","internalType":"uint256"}],"stateMutability":"view"}],"bytecode":{"object":"0x6080604052348015600f57600080fd5b506107468061001f6000396000f3fe608060405234801561001057600080fd5b50600436106100415760003560e01c806318fd35fe146100465780637ee3ba591461006c578063d604fdb11461007f575b600080fd5b6100596100543660046103da565b6100a0565b6040519081526020015b60405180910390f35b61005961007a3660046103da565b6101dc565b610088610fff81565b6040516001600160a01b039091168152602001610063565b600080826000015183602001516040516020016100be929190610580565b60408051601f198184030181529190529050600080610fff5a846040516100e5919061060e565b6000604051808303818686fa925050503d8060008114610121576040519150601f19603f3d011682016040523d82523d6000602084013e610126565b606091505b5091509150816101765760405162461bcd60e51b8152602060048201526016602482015275141c9958dbdb5c1a5b194818d85b1b0819985a5b195960521b60448201526064015b60405180910390fd5b60008180602001905181019061018c919061063a565b905060008160c001518260a001518360800151846060015185604001516101b391906106d0565b6101bd91906106d0565b6101c791906106d0565b6101d191906106d0565b979650505050505050565b600080826000015183602001516040516020016101fa929190610580565b60408051601f198184030181529190529050600080610fff5a84604051610221919061060e565b6000604051808303818686fa925050503d806000811461025d576040519150601f19603f3d011682016040523d82523d6000602084013e610262565b606091505b5091509150816102ad5760405162461bcd60e51b8152602060048201526016602482015275141c9958dbdb5c1a5b194818d85b1b0819985a5b195960521b604482015260640161016d565b6000818060200190518101906102c391906106f7565b9695505050505050565b634e487b7160e01b600052604160045260246000fd5b6040805190810167ffffffffffffffff81118282101715610306576103066102cd565b60405290565b60405160c0810167ffffffffffffffff81118282101715610306576103066102cd565b80356001600160a01b038116811461034657600080fd5b919050565b600082601f83011261035c57600080fd5b813567ffffffffffffffff811115610376576103766102cd565b604051601f8201601f19908116603f0116810167ffffffffffffffff811182821017156103a5576103a56102cd565b6040528181528382016020018510156103bd57600080fd5b816020850160208301376000918101602001919091529392505050565b6000602082840312156103ec57600080fd5b813567ffffffffffffffff81111561040357600080fd5b82016040818503121561041557600080fd5b61041d6102e3565b81358152602082013567ffffffffffffffff81111561043b57600080fd5b91909101906040828603121561045057600080fd5b6104586102e3565b823567ffffffffffffffff81111561046f57600080fd5b830160c0818803121561048157600080fd5b61048961030c565b6104928261032f565b81526104a06020830161032f565b602082015260408281013590820152606080830135908201526080808301359082015260a082013567ffffffffffffffff8111156104dd57600080fd5b6104e98982850161034b565b60a083015250825250602083013567ffffffffffffffff81111561050c57600080fd5b6105188782860161034b565b60208301525080602083015250809250505092915050565b60005b8381101561054b578181015183820152602001610533565b50506000910152565b6000815180845261056c816020860160208601610530565b601f01601f19169290920160200192915050565b828152604060208201526000825160408084015260018060a01b03815116608084015260018060a01b0360208201511660a0840152604081015160c0840152606081015160e0840152608081015161010084015260a0810151905060c06101208401526105f1610140840182610554565b90506020840151603f198483030160608501526102c38282610554565b60008251610620818460208701610530565b9190910192915050565b8051801515811461034657600080fd5b600060e082840312801561064d57600080fd5b5060405160009060e0810167ffffffffffffffff81118282101715610674576106746102cd565b6040526106808461062a565b815261068e6020850161062a565b602082015260408481015190820152606080850151908201526080808501519082015260a0808501519082015260c09384015193810193909352509092915050565b808201808211156106f157634e487b7160e01b600052601160045260246000fd5b92915050565b60006020828403121561070957600080fd5b505191905056fea2646970667358221220a77100f7599682b305f05ba72593c715fec36cb80b0199e106a4e96be427bbbe64736f6c634300081a0033","linkReferences":{}},"methodIdentifiers":{"EXTERNAL_RPC_CALL()":"d604fdb1","remoteEthCallBalanceOf((uint256,((address,address,uint256,uint256,uint256,bytes),bytes)))":"7ee3ba59","remoteEthCallGetStruct((uint256,((address,address,uint256,uint256,uint256,bytes),bytes)))":"18fd35fe"},"id":0}